:100000000C942A000C9447000C9447000C94470071
:100010000C9447000C9447000C9447000C94470044
:100020000C9447000C9447000C94B2050C944700C4
:100030000C9447000C9447000C9447000C94470024
:100040000C9447000C9447000C9447000C94470014
:100050000C94470011241FBECFE5D8E0DEBFCDBF12
:1000600010E0A0E6B0E0E4E1FCE002C005900D92F3
:10007000AE3BB107D9F720E0AEEBB0E001C01D9276
:10008000AB3CB207E1F70E94CD010C9408060C943A
:1000900000000895089508951092BE0008951092EA
:1000A000BF0008951F93CF93DF931F92CDB7DEB7A4
:1000B00019820E944B00182FBE016F5F7F4F82E0B4
:1000C0000E94BA018981813099F4113041F4809104
:1000D000BF00843669F08B5F8093BF0009C0123087
:1000E00039F48091BF00882319F085508093BF00B8
:1000F0000F90DF91CF911F9108950895833068F597
:100100009091600091112BC090E0FC01EE0FFF1F59
:10011000E80FF91FED59FF4F2181213071F4FC01E7
:10012000EE0FFF1F8E0F9F1FFC01ED59FF4F61E087
:1001300080810E94210480E00895211112C0FC01F9
:10014000EE0FFF1F8E0F9F1FFC01ED59FF4F60E068
:1001500080810E94210480E0089581E0089581E07B
:10016000089580E00895833068F5909160009111C2
:100170002BC090E0FC01EE0FFF1FE80FF91FED59B7
:10018000FF4F2181213071F4FC01EE0FFF1F8E0F14
:100190009F1FFC01ED59FF4F60E080810E94210408
:1001A00080E00895211112C0FC01EE0FFF1F8E0F99
:1001B0009F1FFC01ED59FF4F61E080810E942104E7
:1001C00080E0089581E0089581E0089580E0089539
:1001D000FF920F931F93CF93DF9303E610E0C0E0ED
:1001E000D0E0FF24F394F8018281813021F48C2F38
:1001F0000E947E0007C0811104C08C2F0E94B300B2
:1002000001C0DF2DCF5F0D5F1F4FC33061F7D111EC
:1002100002C0109260008D2FDF91CF911F910F913E
:10022000FF900895ACE6B0E0E3ECF0E026EC30E0BF
:1002300091E011968C911197813011F4108201C0D8
:10024000908312963196E217F30799F710926100A6
:1002500080E008956F927F928F929F92AF92BF92AB
:10026000CF92DF92EF92FF920F931F93CF93DF9382
:100270001F92CDB7DEB7198280916100811169C0EC
:100280000F2EFCE6EF2EF0E0FF2EF02D00EC10E03C
:100290000F2EF3ECCF2EF0E0DF2EF02D0F2EF3EC2F
:1002A000AF2EF0E0BF2EF02D99249394812C68940A
:1002B000772471F80F2EF3E06F2EF02DBE016F5FE3
:1002C0007F4FD7018C910E942A05F701818181110E
:1002D00005C0892D99819111882D8983F80180812C
:1002E000813069F028F08230A9F08330D1F023C04A
:1002F000D6011C9289818130F1F490821CC0D60114
:100300001C928981813011F4708215C0811113C053
:10031000108211C0D6019C92898181110CC060822B
:100320000AC0D6019C928981813011F4708203C089
:10033000811101C01082B2E0EB0EF11C0F5F1F4F64
:10034000EFEFCE1ADE0A0A151B0509F0B7CF80E0E1
:1003500001C081E00F90DF91CF911F910F91FF902D
:10036000EF90DF90CF90BF90AF909F908F907F9055
:100370006F900895833068F49091610091110BC0E3
:10038000E82FF0E0ED53FF4F8081FB01808380E098
:10039000089581E0089581E008950E94D6050F2E0A
:1003A000F4E1AF2EF02D0F2EF2E3BF2EF02D0F2E25
:1003B000F4E6CF2EF02D0F2EF8ECDF2EF02D0F2EC1
:1003C000F4EFEF2EFF24F394F02D08EE13E0C0EDD0
:1003D000D7E08091CA008130E1F71092CA00809185
:1003E000C6009091C7000E94E7058091C8009091D7
:1003F000C9000E94E8058091C8009091C90080FF63
:100400000E94E9054091C8005091C9009A01ADECE5
:10041000BCEC0E94F90596958795969587959C0169
:10042000220F331F220F331F820F931F48175907C4
:1004300011F40E94EA054091C8005091C9009A0148
:10044000ADECBCEC0E94F90596958795969587953D
:10045000969587959C01220F331F880F991F880F4F
:10046000991F880F991F820F931F4817590711F47E
:100470000E94EB054091C8005091C9009A01ADEC73
:10048000BCEC0E94F905929582958F7089279F7028
:100490008927A89E9001A99E300D11244217530769
:1004A00011F40E94F0054091C8005091C9009A01D2
:1004B00036952795ABE7B4E10E94F90596958795A7
:1004C000B89E9001B99E300D11244217530711F4C4
:1004D0000E94F1054091C8005091C9009A013695DB
:1004E000279536952795ABE7B4E10E94F9059695D7
:1004F0008795C89E9001C99E300D1124421753075D
:1005000011F40E94F4054091C8005091C9009A016D
:10051000369527953695279536952795ABE7B4E11F
:100520000E94F90596958795D89E9001D99E300D29
:1005300011244217530711F40E94F5054091C80099
:100540005091C9009A013695279536952795A5ECC7
:10055000B0E20E94F905929582958F7089279F706D
:1005600089278E9D90018F9D300D9E9D300D112409
:100570004217530711F40E94F6054091C8005091AC
:10058000C9009A0136952795369527953695279572
:10059000A5ECB0E20E94F905929582958F708927AB
:1005A0009F708927809F9001819F300D909F300D13
:1005B00011244217530711F40E94F7054091C80017
:1005C0005091C9009A01329522952F7023273F70D0
:1005D0002327A3E6B0E10E94F905969587959695A5
:1005E0008795969587958C9F90018D9F300D9C9F48
:1005F000300D11244217530709F0EBCE0E94F80585
:10060000E8CE81E08093CA008091620091E0811180
:1006100090E090936200811114C08091C800909185
:10062000C90001969093C9008093C8008091C800CA
:100630009091C900803D974021F41092C90010921A
:10064000C8008091C6009091C700019681709927DB
:100650009093C7008093C600089590E0FC01EE0FD0
:10066000FF1FEE0FFF1FE80FF91FEE58FF4F20810D
:10067000213009F43FC038F0223009F472C0233031
:1006800009F4A6C0DCC0FC01EE0FFF1FEE0FFF1F38
:10069000E80FF91FEE58FF4F22812130A9F42AB349
:1006A000FC01EE0FFF1FEE0FFF1FE80FF91FEE58C2
:1006B000FF4F81E090E0018002C0880F991F0A94EB
:1006C000E2F7822B8ABBBBC02AB3FC01EE0FFF1FEF
:1006D000EE0FFF1FE80FF91FEE58FF4F81E090E08B
:1006E000018002C0880F991F0A94E2F78095822347
:1006F0008ABBA5C0FC01EE0FFF1FEE0FFF1FE80F26
:10070000F91FEE58FF4F22812130A9F427B3FC01D5
:10071000EE0FFF1FEE0FFF1FE80FF91FEE58FF4F00
:1007200081E090E0018002C0880F991F0A94E2F7EF
:10073000822B87BB84C027B3FC01EE0FFF1FEE0F97
:10074000FF1FE80FF91FEE58FF4F81E090E0018096
:1007500002C0880F991F0A94E2F78095822387BB15
:100760006EC0FC01EE0FFF1FEE0FFF1FE80FF91F19
:10077000EE58FF4F22812130A9F424B3FC01EE0F83
:10078000FF1FEE0FFF1FE80FF91FEE58FF4F81E02C
:1007900090E0018002C0880F991F0A94E2F7822B33
:1007A00084BB4DC024B3FC01EE0FFF1FEE0FFF1FF3
:1007B000E80FF91FEE58FF4F81E090E0018002C082
:1007C000880F991F0A94E2F78095822384BB37C073
:1007D000FC01EE0FFF1FEE0FFF1FE80FF91FEE5891
:1007E000FF4F22812130A9F421B3FC01EE0FFF1F3E
:1007F000EE0FFF1FE80FF91FEE58FF4F81E090E06A
:10080000018002C0880F991F0A94E2F7822B81BBF6
:1008100016C021B3FC01EE0FFF1FEE0FFF1F8E0F5E
:100820009F1FFC01EE58FF4F81E090E0018002C065
:10083000880F991F0A94E2F78095822381BB80E09C
:10084000089590E0FC01EE0FFF1FEE0FFF1FE80F71
:10085000F91FEE58FF4F20812130A9F138F02230E6
:1008600009F45EC0233009F488C0B4C06130A9F433
:100870002BB3FC01EE0FFF1FEE0FFF1FE80FF91F58
:10088000EE58FF4F81E090E0018002C0880F991F71
:100890000A94E2F7822B8BBB9DC02BB3FC01EE0FB9
:1008A000FF1FEE0FFF1FE80FF91FEE58FF4F81E00B
:1008B00090E0018002C0880F991F0A94E2F78095AA
:1008C00082238BBB87C06130A9F428B3FC01EE0FF3
:1008D000FF1FEE0FFF1FE80FF91FEE58FF4F81E0DB
:1008E00090E0018002C0880F991F0A94E2F7822BE2
:1008F00088BB70C028B3FC01EE0FFF1FEE0FFF1F77
:10090000E80FF91FEE58FF4F81E090E0018002C030
:10091000880F991F0A94E2F78095822388BB5AC0FA
:100920006130A9F425B3FC01EE0FFF1FEE0FFF1F8E
:10093000E80FF91FEE58FF4F81E090E0018002C000
:10094000880F991F0A94E2F7822B85BB43C025B319
:10095000FC01EE0FFF1FEE0FFF1FE80FF91FEE580F
:10096000FF4F81E090E0018002C0880F991F0A9438
:10097000E2F78095822385BB2DC06130A9F422B3B4
:10098000FC01EE0FFF1FEE0FFF1FE80FF91FEE58DF
:10099000FF4F81E090E0018002C0880F991F0A9408
:1009A000E2F7822B82BB16C022B3FC01EE0FFF1FC1
:1009B000EE0FFF1F8E0F9F1FFC01EE58FF4F81E0CF
:1009C00090E0018002C0880F991F0A94E2F7809599
:1009D000822382BB80E008950F931F93CF938F30C3
:1009E00000F5C82F082F10E00E942D03F801EE0F2C
:1009F000FF1FEE0FFF1FE00FF11FEE58FF4F928118
:100A0000992381F0F801EE0FFF1FEE0FFF1F0E0F6D
:100A10001F1FF801EE58FF4F64818C2F0E942104A4
:100A200001C081E0CF911F910F9108951F93CF9343
:100A3000DF93D0E0C0E011E08C2F0E94EC04813005
:100A400009F4D12FCF5FCF30B9F78D2FDF91CF9140
:100A50001F91089590E0FC01EE0FFF1FEE0FFF1FA6
:100A6000E80FF91FEE58FF4F20812130F1F030F0F0
:100A7000223091F1233009F446C05BC029B330E045
:100A8000FC01EE0FFF1FEE0FFF1F8E0F9F1FFC01DB
:100A9000EE58FF4FC901018002C0959587950A94D1
:100AA000E2F78170FB01808344C026B330E0FC0193
:100AB000EE0FFF1FEE0FFF1F8E0F9F1FFC01EE5862
:100AC000FF4FC901018002C0959587950A94E2F70E
:100AD0008170FB0180832DC023B330E0FC01EE0F59
:100AE000FF1FEE0FFF1F8E0F9F1FFC01EE58FF4FE1
:100AF000C901018002C0959587950A94E2F781703B
:100B0000FB01808316C020B330E0FC01EE0FFF1F15
:100B1000EE0FFF1F8E0F9F1FFC01EE58FF4FC90104
:100B2000018002C0959587950A94E2F78170FB01D8
:100B3000808380E0089583B78F7B83BF83B788600D
:100B400083BF89B7826089BF8EE38CBF12BE83B733
:100B5000816083BF83B7826083BF83B78B7F83BF8E
:100B6000789408951F920F920FB60F9211242F932D
:100B70003F934F935F936F937F938F939F93AF9325
:100B8000BF93EF93FF930E940103FF91EF91BF91F9
:100B9000AF919F918F917F916F915F914F913F9115
:100BA0002F910F900FBE0F901F9018950E94160561
:100BB0000E94E8000E9412010E947D000E944F00E6
:100BC0000E944C000E9449000E949B0508950895D0
:100BD0000895089508950E942A010E9452000895E0
:100BE00008950E944A00089508950895089508956B
:100BF0000895A29FB001B39FC001A39F700D811DF6
:100C00001124911DB29F700D811D1124911D089515
:040C1000F894FFCF86
:100C140001010104010005010006010100010101B7
:100C240002010300000002030100000203020000AD
:100C3400020303010200030501020003060102008E
:100C44000307010200020201020002030102000282
:100C5400040102000205010200020601020002076B
:0E0C6400010200010001020001070000020071
:00000001FF
